:100000000C9434000C9451000C9451000C94510049
:100010000C9451000C943C080C9451000C94510029
:100020000C9451000C9451000C9451000C9451000C
:100030000C9451000C9451000C9475090C945100CF
:100040000C9451000C9451000C9451000C945100EC
:100050000C9451000C9451000C9451000C945100DC
:100060000C9451000C94510011241FBECFEFD8E026
:10007000DEBFCDBF13E0A0E0B1E0E4EFF5E102C0E8
:1000800005900D92A43DB107D9F724E0A4EDB3E0AB
:1000900001C01D92AD33B207E1F70E942A090C940A
:1000A000F80A0C9400003F937F939F93762F7095EE
:1000B000982F90953AB139233AB93AB137233AB9E2
:1000C0003BB1382B3BB93BB137233BB93AB1362B67
:1000D0003AB99F917F913F9108953F937F939F936A
:1000E000762F7095982F90953AB173237AB93AB1DB
:1000F000762B382B93233AB99AB97AB99F9189B163
:1001000084237F913F9108953F939F93982F9095DB
:100110003BB139233BB93AB1382B3AB99F913F9162
:100120000895A1E0B0E0E7E9F0E00C94C70AFFB65B
:1001300090E8F92219829091D403913019F091E05E
:100140009093D40390E024E2A22E24E0B22EA80ED5
:10015000B91EF501D080805E9B4FFC01C080F894F1
:10016000DD2009F4A9C0F50180810E9484008D2D55
:100170006C2D0E945300ED2C80E000E010E0812CFB
:1001800090E2992E15FF07C0909125042091240438
:10019000922B11F533C08FB78F298FBF0000F894D1
:1001A0008D2D6C2D4E2D0E946D000F5F1F4F909175
:1001B00000019F5F90930001923030F0923021F067
:1001C000933011F0109200018823E1F29091250400
:1001D00020912404922B14C020E0E0FE09C0E22FFD
:1001E000F0E0EE0FFF1FE352FC4F9182808201C0CE
:1001F00090FD2F5F9695E694992379F790E0EE2491
:100200002FB72F292FBF1092D5039923D1F1EE20BC
:10021000C1F12091210430912004232B582F30E08C
:1002200070E060E040E021C050FF18C012C020FF25
:100230000FC0461761F4E32FF0E0EE0FFF1FE3520B
:10024000FC4F11830083E52FEE7F31F008C06F5F14
:100250002695222361F703C071E001C090FD4F5F36
:1002600090FD3F5F5695969511F05523E9F6309332
:10027000D5038095E82280E07130D1F4EE20B1F012
:1002800017C09091250420912404922B998390917A
:10029000D50306C0298120FD9F5F298126952983EA
:1002A00029812223B9F79093D50302C000E010E022
:1002B000F894EE2009F066CFF50180810E94840059
:1002C0001092D6038FB78F298FBF2196ECE00C9444
:1002D000E30AFF920F931F93CF93DF938C01EB01FF
:1002E000FF2404C08F2D0E94CF02F3948091FB0362
:1002F000F816C0F31092F7031092F6031093D80388
:100300000093D703CE010E946705CDB7DEB7E5E0C5
:100310000C94EA0AFC0180E29CE0918380831382C2
:10032000128280E095E0958384830895CF93C0E0A6
:1003300004C08C2F0E94CF02CF5F8091FB03C817AF
:10034000C0F3CF9108951092FB031092280484E02B
:100350008093F00384E18093F30395E09093F4039A
:100360001092F2038093F103E0EFF3E081E08293D7
:1003700083E086830E946C051092DC031092DB03FD
:1003800008951F93CF93DF931092DA031092D9034D
:100390004091F6035091F7039093F7038093F6038F
:1003A0002091F8033091F903241B350B280F391FD6
:1003B000C0E003C0285C3040CF5F283C3105D0F757
:1003C0003093F9032093F8038091FA03882341F0D6
:1003D0008C1718F41092FA0303C08C1B8093FA0355
:1003E0000E947D05E091DB03F091DC03309709F07A
:1003F000099510E0D0E006C08D2F6C2F0E94E2021C
:10040000182BDF5F5091FB03D517B0F3112349F090
:100410008091D9039091DA0391609093DA038093ED
:10042000D9031092ED03ACEFB3E040E081E090E03F
:1004300018C02C91287199F0E42FE695E695E69581
:10044000F0E0E352FC4F242F2770BC0102C0660F7E
:10045000771F2A95E2F79B013089322B308B4F5F53
:100460001896451731F78091D9039091DA03DF91FF
:10047000CF911F9108959091FB03E92FF0E033E0B5
:10048000EE0FFF1F3A95E1F7E450FC4F438367708E
:10049000858386832370660F660F660F262B248361
:1004A0009F5F9093FB030895A1E0B0E0EAE5F2E0DE
:1004B0000C94CD0A082F10E063E0000F111F6A951D
:1004C000E1F7F801E450FC4F6581438150E0009072
:1004D000EF0302C0559547950A94E2F7443008F4BB
:1004E00044E09091FB03891788F55CEFE52E53E01B
:1004F000F52EE00EF11EF7019481292F207C01F5E5
:10050000862F49830E9451054981242F30E046956A
:10051000469550E0421B530B4817590724F4F70146
:1005200044814B7F4483309521953F4F28173907ED
:100530007CF0F801E450FC4F24812460248308C03F
:100540009B7FF70194830E94AA0602C080E090E09E
:100550002196E6E00C94E90AE82FF0E083E0EE0F44
:10056000FF1F8A95E1F7E450FC4F2581368182E038
:1005700080838091D9039091DA0382609093DA03AB
:100580008093D9031282822F90E806C0E82FF0E012
:10059000E45EFB4F90838F5F3817C0F70895CF93C9
:1005A000C82F0E94AC02EC2FF0E093E0EE0FFF1F8B
:1005B0009A95E1F7E450FC4F81E080838FE08183DE
:1005C000CF9108954F925F926F927F928F929F92F8
:1005D000AF92BF92DF92EF92FF920F931F93CF9350
:1005E000DF930F92CDB7DEB7182FE62E0E9454028C
:1005F0004C01A12EBB2463E0AA0CBB1C6A95E1F759
:10060000F501E450FC4F4481238130E0842F837056
:1006100090E00196B90102C0759567958A95E2F759
:10062000CB01623008F482E0B901681B7109F50161
:10063000E450FC4F8081843009F4D4C0853030F41C
:10064000813071F0823009F019C257C0803109F44D
:100650005FC1803209F4E8C1883009F00FC2B8C127
:100660002091D9033091DA033260658176817F0170
:100670000894E11CF11C2BC0F7018081E62FF0E00B
:10068000DF01AA0FBB1FAB51BC4F8A3038F0EE0F11
:10069000FF1FE352FC4F8081918114C04D915C910A
:1006A0001197EE0FFF1FE352FC4F80819181841759
:1006B000950718F4CA01019705C04817590730F487
:1006C000CA01019611969C938E9328606F5F7617EE
:1006D00098F63093DA032093D903F501E450FC4FE8
:1006E000818181508183882319F4812F0E94AC027B
:1006F0008091F1038093FA03B9C142FF08C0A5813C
:10070000B0E0A45EBB4F1C9280E28083A6C1C4010E
:1007100097FE02C080E090E08217930738F0F50161
:10072000E450FC4F84E080831282A2C1EE2009F4E1
:10073000A5C18091FA03882309F0A0C1F501E45016
:10074000FC4F2581D6803091F403305800E8A02E6C
:100750008091F303A81A6091D9037091DA0380E8BD
:10076000882E39C0422F50E0DA01AA0FBB1FAB51CF
:10077000BC4F8D919C911197FA01EE0FFF1FE35230
:10078000FC4F00811181FA01E45EFB4F8017910755
:1007900040F440814E0D40834317E0F08082019683
:1007A0000AC00817190760F440814E194083A41647
:1007B00088F08082019711969C938E9368600AC09E
:1007C0008081813810F081508083808187FD02C054
:1007D0008F5F80832F5FD21628F67093DA036093C1
:1007E000D9034CC1C40197FE02C080E090E082179B
:1007F000930708F427C18091F1038093FA03F50170
:10080000E450FC4F82818F5F8283848190E0887303
:10081000907063E0969587956A95E1F7D82E8823C6
:10082000B9F549C0011791F1402E552443E0440C1D
:10083000551C4A95E1F76CEF73E0460E571EF20126
:10084000848190E08873907053E0969587955A95CF
:10085000E1F7D816D9F4802F29830E945402F201BF
:100860003381AC01431B5109F3018081B401681B42
:10087000710929816417750734F0F2018081803194
:1008800011F0883019F4F701108221E00F5F0CC0DD
:1008900020E000E033E0632E712C6E0E7F1E7F019E
:1008A00062E070E0E60EF71E8091FB03081708F483
:1008B000B9CF222379F48091F003882359F08091F5
:1008C000D9039091DA0398609093DA038093D90367
:1008D00001E001C000E0F501E450FC4F92818091FD
:1008E000F003981708F4CBC02091D9033091DA03B4
:1008F00023603093DA032093D90380E1808311824F
:100900008481807C09F4BBC0812F0E941C08B7C081
:100910002091D9033091DA0342FF0EC0A581B0E0E7
:10092000A45EBB4F80E88C9380E28083306130937B
:10093000DA032093D90344C0C40197FE02C080E0CB
:1009400090E08617970758F4F501E450FC4F88E0D3
:1009500080838091D9039091DA0394602DC0216047
:100960003093DA032093D903F501E450FC4F8281E0
:100970009091F003891710F48F5F8283F501E450A2
:10098000FC4F8481807C19F0812F0E94EC069091AD
:10099000F2039923B9F0F501E450FC4F81818917E6
:1009A00018F4E80EE1820EC0812F0E94CF028091E0
:1009B000D9039091DA0392609093DA038093D9037C
:1009C00001E001C000E08091F1038093FA0357C079
:1009D0008091F1038093FA038281882399F1C40105
:1009E00097FE02C080E090E02091D9033091DA03B5
:1009F0006817790760F4F501E450FC4F80E18083CB
:100A000021603093DA032093D90300E006C03460FC
:100A10003093DA032093D90301E0F501E450FC4F51
:100A20008281815082832BC0A581B0E0A45EBB4F40
:100A30008C918F5F8C9342FD09C087FF03C080E1DA
:100A400080831CC0812F0E94AC0218C09091F503D6
:100A5000891770F0812F0E94CF028091D903909165
:100A6000DA0390619093DA038093D90301E007C021
:100A70008091D9039091DA039460F4CF00E0802F45
:100A80000F90DF91CF911F910F91FF90EF90DF902A
:100A9000BF90AF909F908F907F906F905F904F909E
:100AA000089590E0FC0134962DED33E0EE0FFF1F2A
:100AB000E20FF31FDC01AA0FBB1FA20FB31F80813F
:100AC00091812D913C911197821B930B0895009772
:100AD00011F0FC0109950895109224041092250448
:100AE00010922004109221041092260410922704E0
:100AF000109222041092230408958091260490916C
:100B00002404892B41F0E091D703F091D80330976A
:100B100011F080E009958091270490912504892B9C
:100B200041F0E091D703F091D803309711F081E0C4
:100B300009950895EF920F939E2DE091FB03F0E04D
:100B400033E0EE0FFF1F3A95E1F7E450FC4F43838B
:100B50003091280437832770858366839370220F32
:100B6000220F220F922B9483832F90E0FC01EE0F33
:100B7000FF1FE80FF91FE75DFB4F0295000F007E96
:100B800002833F5F309328040F91EF9008959C01FA
:100B90006115710521F14F5F03C04150220F331FD2
:100BA00037FD06C04423C9F703C04F5F660F771FA8
:100BB00077FFFBCF80E090E00BC0880F991F41507A
:100BC0002617370718F0261B370B01967695679581
:100BD000442339F097FFF1CF8FEF9FEF08958FEF08
:100BE0009FEF08956F927F928F929F92AF92BF92E4
:100BF000CF92DF92FF920F931F93CF93DF93F82E44
:100C0000C82FD0E04E010894811C911C8E010C5F0E
:100C10001F4FBDEDCB2EB3E0DB2E000F111F0C0DCF
:100C20001D1DF801A080B180FE013596EE0FFF1F5B
:100C3000EC0DFD1D80819181B5014CE00E94C7053E
:100C4000BC01F401EE0FFF1FEC0DFD1D80819181B1
:100C50004CE00E94C7053C0132E0832E912C8C0EA3
:100C60009D1EFE013696EE0FFF1FEC0DFD1D8081CF
:100C70009181B5014CE00E94C705BC01F401EE0F63
:100C8000FF1FEC0DFD1D808191814CE00E94C70586
:100C9000EC018F2D0E94510590932D0480932C041C
:100CA000F801808191819C012619370930932F0426
:100CB00020932E048C1B9D0B909331048093300461
:100CC000DF91CF911F910F91FF90DF90CF90BF9058
:100CD000AF909F908F907F906F900895EF920F93B9
:100CE000342F902F0E2D422F232FE92E0E949A058C
:100CF0009091FB03E92FF0E063E0EE0FFF1F6A9590
:100D0000E1F7E450FC4F8481806484839F5F90937B
:100D1000FB030F91EF900895EF920F93342F902FD4
:100D20000E2D422F232FE92E0E949A059091FB034E
:100D3000E92FF0E073E0EE0FFF1F7A95E1F7E45042
:100D4000FC4F8481806884839F5F9093FB030F91A5
:100D5000EF9008951F93CF93DF93182F862FC42F02
:100D60000E94F20580912C0490912D0420912E0474
:100D700030912F04F22FE32F8217930714F4F82FEA
:100D8000E92F60913004709131044F2F5E2F64176A
:100D900075070CF4AB01820F931F860F971FD0E0ED
:100DA000D095C195DF4FC817D90764F0E12FF0E067
:100DB000A3E0EE0FFF1FAA95E1F7E450FC4F24815A
:100DC00024602483841B950B841B950B841B950B3B
:100DD000DF91CF911F910895A0E0B0E0E2EFF6E03F
:100DE0000C94C80A082F10E0E3E0000F111FEA95E9
:100DF000E1F7D801A450BC4F1796CC901797DD248B
:100E0000F601EE0FFF1FEC0DFD1DE75DFB4FE280CD
:100E100015968C910E94F20560912C0470912D041E
:100E200080912E0490912F04E0913004F0913104D0
:100E3000681779074CF08E179F0784F4AB019C016B
:100E4000BF01C0E0D0E010C09F01E617F7074CF0EB
:100E5000AF019B01BC01C0E0D0E206C0AC019F0124
:100E600001C0AC01C0E0D0E1640F751F621B730BC1
:100E7000621B730BCA01821B930B4CE00E94C705D7
:100E8000C80FD91FF801E450FC4F048110E0007C2A
:100E900010700038110581F4CE01875692402BE284
:100EA0008233920708F0C3C087E0C333D80708F441
:100EB000B5C0C253D740B4C07FEFA72E7FE2B72E94
:100EC00080E090E32E2D229526952770322F3F5FEC
:100ED000E12C61E0F62E02C0F694E7942F5F2830F3
:100EE000D8F39E2C9A94B701353018F4660F771F0B
:100EF00004C0373010F07695679540E00E94C70532
:100F0000AC0100341105F9F4F601EE0FFF1FEC0DF2
:100F1000FD1DE75DFB4F8081918128E180309207C4
:100F200040F080509841C817D90768F4C050D04DA0
:100F30000AC09C012050384E2C173D0720F48050E9
:100F4000904D918380839601220F331FF901EC0DA0
:100F5000FD1DE75DFB4F928190FF05C09E7F928350
:100F600040E050E006C091FF04C0CA0140E050E0FC
:100F700002C080E090E0F901EC0DFD1DE75DFB4F44
:100F800020813181820F931FC817D90718F0828101
:100F90008D7F08C0CA018C0F9D1F2817390728F0C4
:100FA000828182608283D183C083E601CC0FDD1F02
:100FB000FE01EC0DFD1DE75DFB4F8081918120E37B
:100FC0008030920720F08050904391838083C50148
:100FD000B70140E00E94C705BC01CC0DDD1DC75D17
:100FE000DB4F8881998140E00E94C705492D50E080
:100FF0009C014817590708F49A01F601E352FC4F87
:1010000081898217A1F0218B8091D9039091DA0315
:1010100084609093DA038093D90309C0C0E0D0E0E4
:10102000BBE9AB2EB1E2BB2E8BE991E24BCFCDB742
:10103000DEB7EBE00C94E40AE82FF0E083E0EE0F7B
:10104000FF1F8A95E1F7E450FC4F878190E0FC0197
:10105000EE0FFF1FE80FF91FE75DFB4F82818160F4
:101060008283089528B1982F9F70922B98B995B1DB
:101070008873892B85B908951F920F920FB60F922E
:1010800011242F933F934F935F936F937F938F938D
:101090009F93AF93BF93EF93FF934F9903C00E9429
:1010A000580A02C00E94600ADA9A87EA91E601971C
:1010B000F1F700C00000FF91EF91BF91AF919F91B8
:1010C0008F917F916F915F914F913F912F910F90F1
:1010D0000FBE0F901F90189587B18F6087B984B1AC
:1010E000886B84B987B18F7C87B988B18F7C88B9C8
:1010F0008AB18F738AB920988BB1806C8BB9289A8A
:10110000E8E6F0E0808182608083EDE6F0E08081B7
:10111000806C8083089561110CC028B1982F9F7056
:101120009095922398B995B188738095892385B954
:101130000895613011F40C9432080895811102C0B1
:101140002F980895813009F42F9A089581E00C9426
:101150009E08803211F484E203C0803119F485E2E4
:1011600080937C0080E880937A0080917A0080648C
:1011700080937A0080917A0086FDFCCF80917A007E
:101180008F7780937A00809179000895982F81302D
:1011900019F483B181700FC0803831F489B1809522
:1011A000881F8827881F0895803439F489B186FB09
:1011B000882780F991E08927089580E00895CF93EA
:1011C000DF93D82FC62FC695C695C69560E08FE3EE
:1011D0000E948B08DC1710F488E038C08D2F90E057
:1011E0002C2F30E0A901440F551F8417950714F4E4
:1011F00080E12CC063E0C69FA001112484179507ED
:1012000014F480E223C0220F331F220F331F8217F2
:10121000930714F481E01AC045E0C49F90011124A3
:101220008217930714F482E011C066E0C69F900114
:1012300011248217930714F484E008C027E0C29FAA
:10124000B0011124861797073CF28FE3DF91CF910D
:101250000C9432080E94A7090E9467090E94680A3C
:1012600078940E946C080E94B1090E94A608C0E010
:1012700081E00E94C608882399F0C11110C00E9425
:10128000C10980E10E94A90890E00E94340A1092EE
:101290007C0080E20E94A90890E00E94C709C1E09A
:1012A00081E00E94C608811105C0C13011F40E947E
:1012B000D009C0E00E94A80AD091EE036FEF8D2FF5
:1012C0000E94DF088D2F90E00E94D309D1CF8FE3D9
:1012D00087BDEEE6F0E080818260808385B5836023
:1012E00085BD84B5826084BD08951F920F920FB6AC
:1012F0000F9211242F933F938F939F9380913504E6
:101300009091360401969093360480933504209191
:101310000101309102018217930738F010923604D0
:101320001092350481E080933404809132049091CE
:101330003304019690933304809332049F918F91EC
:101340003F912F910F900FBE0F901F901895E1E6DF
:10135000F0E080E8808381E0808385B7806185BF8D
:10136000089584E493E090933C0480933B048AB115
:101370008AB98FEF84B9E0E8F0E0808182688083E9
:101380000895E1E8F0E080818A618083089520E497
:10139000829FC00111249093890080938800089552
:1013A00010928100089590E04091030120913B0448
:1013B00030913C04F9018F31910544F480E2489F5B
:1013C000E00DF11D11248081918149C08E3391057A
:1013D00044F480E2489FE00DF11D11248481958141
:1013E0003EC08D35910544F480E2489FE00DF11D2B
:1013F00011248085918533C08C37910544F480E2B7
:10140000489FE00DF11D11248485958528C08B39F6
:10141000910544F480E2489FE00DF11D112480897C
:1014200091891DC08A3B910544F480E2489FE00DFC
:10143000F11D11248489958912C0893D910544F4D8
:1014400080E2489FE00DF11D1124808D918D07C031
:1014500080E2489FE00DF11D1124848D958D9093BD
:10146000870080938600089590E08F3191050CF4F9
:1014700009C08E3391051CF484E493E014C08D35CB
:1014800091051CF484EB92E00EC08C3791051CF49E
:1014900084E292E008C08B3991051CF484E991E064
:1014A00002C084E091E090933C0480933B04089553
:1014B00080910301843018F48F5F809303010895B5
:1014C00080910301882319F08150809303010895CE
:1014D000CF92EF920F9385E180932404109225041C
:1014E00010922604109227048AE28093200410921E
:1014F00021041092220410922304C12C87E0E82ECC
:1015000003E02AE040E062E080E00E948C0660E0B8
:1015100070E081E990E00E94690184E08093F0032B
:1015200084E18093F30395E09093F4031092F20327
:101530008093F10381E08093EF038AE08093F503C9
:101540001092DC031092DB030F91EF90CF9008957F
:10155000809134048823A1F01092340480913204E5
:10156000909133040E94C101909338048093370412
:101570008827917090933A0480933904892B71F7EE
:1015800008952F923F924F925F926F927F928F9227
:101590009F92AF92BF92CF92DF92EF92FF920F9302
:1015A0001F93CF93DF93CDB7DEB7CA1BDB0B0FB60C
:1015B000F894DEBF0FBECDBF09942A8839884888C9
:1015C0005F846E847D848C849B84AA84B984C8845F
:1015D000DF80EE80FD800C811B81AA81B981CE0F56
:1015E000D11D0FB6F894DEBF0FBECDBFED0108953B
:0415F000F894FFCF9D
:1015F40001320002DD1D0000DD1D00001C19000089
:101604001C190000EE130000EE130000EE0E0000A3
:10161400EE0E0000EE0E00008E0C00008E0C00009A
:10162400F7090000F70900007707000077070000BA
:10163400770700004706000047060000FC0400008E
:10164400FC040000BC030000BC030000BC03000059
:1016540024030000240300007E0200007E02000038
:10166400DE010000DE010000DE0100009201000046
:10167400920100003F0100003F010000EF00000064
:10168400EF000000DD1D0000DD1D0000B4170000A8
:10169400B4170000EE130000EE130000EE0E00007D
:1016A400EE0E0000EE0E0000DA0B0000DA0B000074
:1016B400F7090000F709000077070000770700002A
:1016C40077070000ED050000ED050000FC040000B4
:1016D400FC040000BC030000BC030000BC030000C9
:1016E400F6020000F60200007E0200007E02000006
:1016F400DE010000DE010000DE0100007B010000CD
:101704007B0100003F0100003F010000EF000000EA
:10171400EF000000DD1D00001C1900005F16000032
:101724005F1600001D150000EE130000C21000003B
:10173400EE0E00008E0C00002F0B00002F0B00009B
:101744008F0A0000F7090000610800007707000015
:1017540047060000980500009805000047050000B2
:10176400FC04000031040000BC030000240300005A
:10177400CC020000CC020000A40200007E020000A3
:1017840018020000DE010000920100006601000062
:1017940066010000520100003F0100000C0100003E
:1017A400EF000000DD1D0000DD1D00009B1A00009D
:1017B400B4170000EE130000C1110000C1110000B5
:1017C400EE0E0000EE0E00004D0D0000DA0B0000DE
:1017D400F7090000E1080000E108000077070000B5
:1017E40077070000A7060000ED050000FC040000D8
:1017F4007004000070040000BC030000BC0300007F
:1018040053030000F60200007E02000038020000CC
:1018140038020000DE010000DE010000AA01000021
:101824007B0100003F0100001C0100001C010000BE
:10183400EF000000DD1D00009B1A0000B41700003B
:101844005F160000EE130000C1110000D20F00006B
:10185400EE0E00004D0D0000DA0B00002F0B00000F
:10186400F7090000E1080000E9070000770700001D
:10187400A7060000ED05000098050000FC04000028
:1018840070040000F4030000BC03000053030000D4
:10189400F6020000CC0200007E02000038020000C4
:1018A400FA010000DE010000AA0100007B01000033
:1018B400660100003F0100001C010000FD00000063
:0418C400EF00000031
:00000001FF
